:020000022000DC
:1060000000000120756302005D6302005F6302000F
:106010006163020063630200656302000000000028
:1060200000000000000000000000000067630200A4
:1060300069630200000000006B6302006D630200F0
:10604000592503006F630200D9350300156F030063
:10605000A95403006F630200F932030099A60300FC
:10606000C9490300E1490300F94903006F630200D5
:106070006F6302006F6302006F6302006F630200D0
:106080006F63020019C502006F6302006F630200B4
:1060900059C502006F630200557804006F63020067
:1060A0006F6302006F6302006F6302006F630200A0
:1060B0006F6302006F630200000000000000000038
:1060C0006F6302006F6302006F6302006F63020080
:1060D0006F6302006F6302006F6302000000000044
:1060E00000000000000000000000000000000000B0
:1060F00000000000000000000000000000000000A0
:10610000000000000000000000000000000000008F
:10611000000000000000000000000000000000007F
:10612000000000000000000000000000000000006F
:10613000000000000000000000000000000000005F
:10614000000000000000000000000000000000004F
:10615000000000000000000000000000000000003F
:10616000000000000000000000000000000000002F
:10617000000000000000000000000000000000001F
:10618000000000000000000000000000000000000F
:1061900000000000000000000000000000000000FF
:1061A00000000000000000000000000000000000EF
:1061B00000000000000000000000000000000000DF
:1061C00000000000000000000000000000000000CF
:1061D00000000000000000000000000000000000BF
:1061E00000000000000000000000000000000000AF
:1061F000000000000000000000000000000000009F
:10620000354936480A1A02D0072291438D4634494F
:1062100034480A1A06D00722914381F309880222E2
:1062200082F3148830483149314A00F044F831484B
:106230003149324A00F03FF831483249324A00F0E1
:106240003AF832483249334A00F035F83248334997
:10625000334A00F030F833483349344A00F02BF821
:1062600033483449344A00F026F83448344900228F
:1062700000F02CF833483449002200F027F8334866
:106280003349091A082902DB002202604160314AC1
:1062900090471F481F49884205D00268043003B464
:1062A000904703BCF7E700208646EC46002000211B
:1062B000294A9047FEE7884207D0521A05D0037852
:1062C00001300B700131013AF9D17047884202D098
:1062D00002700130FAE770470000012000E0002062
:1062E000000001200000012000070500CC2500204F
:1062F000F4260020D0630200D0630200289E040030
:1063000000070500CC250020CC250020C89F0400F4
:10631000C89F0400C89F0400C89F0400C89F0400D1
:10632000C89F0400C89F0400C89F04000007050020
:1063300028080500F4260020F4260020F42600207A
:106340001846002018460020204600202046002045
:10635000206600209D63020051840300FEE7FEE7F3
:10636000FEE7FEE7FEE7FEE7FEE7FEE7FEE7FEE705
:1063700000F002B8FFF7FCBF0F484FF00701884359
:1063800085460E4880470E48016841F4700101605F
:10639000BFF34F8FBFF36F8FFFF732BF09480A4932
:1063A0000A4A884207D0521A05D0037801300B7090
:1063B0000131013AF9D1704700000120B118030002
:1063C00088ED00E0B49F0400B8250020CC25002013
:1063D000004870471046002000B585B00190019B31
:1063E000002B0AD0074B43F001030393019B9B0151
:1063F0000293039B0298984700E000BF05B05DF848
:1064000004FB00BFE09F040000B583B00190019B36
:10641000002B0AD04FF47A70FFF7DEFF019B013B9F
:106420000193019B002BF5D100E000BF03B05DF8A4
:1064300004FB08B517F01AFE00BF08BD00B589B00F
:10644000039002910192019B002B33D0002307930C
:1064500003230693029A079B1344019A19460020CE
:1064600017F090FD0590079A059B13440793019A36
:10647000059BD31A0193059B002B13D10F4B1B785F
:1064800083F00103DBB2002B13D10120FFF7BCFF27
:10649000069B013B0693069B002B03D1074B002272
:1064A0001A7007E0054B01221A70019B002BD1D115
:1064B00000E000BF00BF09B05DF804FBF426002037
:1064C00000B585B003900291054B00934023054A27
:1064D0000299039800F012F800BF05B05DF804FBC4
:1064E0003D640200F826002082B0019000BF02B097
:1064F000704782B0019000BF02B0704700B5A1B0F4
:106500000590049103920293049804F080FF039B8A
:106510001593029B16930023179300238DF8603088
:1065200000231993229B1A9300231F930FA91F9BEB
:106530000822049805F044F808231F93119B129336
:10654000BDF84030ADF84C30BDF84230ADF84E30BB
:1065500001238DF851309DF83C3003F00303DBB28A
:10656000012B26D10F9BC3F395231D939DF83C303F
:10657000C3F3C203DBB28DF85030BDF83C30C3F337
:106580008313DBB21C931C9B9A0009A91F9B0498E0
:1065900005F016F81C9B9B001F9A13441F9312AA28
:1065A00009A915AB009313461C9A1D9800F000FF33
:1065B0002FE09DF83C3003F00303DBB2022B28D11F
:1065C000BDF83E30C3F389139BB21E939DF83C3057
:1065D000C3F3C203DBB28DF850301E9B082B28BFDB
:1065E00008231B9307A91F9B1B9A049804F0E8FF3C
:1065F0001F9A1B9B13441F931E9A1B9BD31A1E9317
:1066000015AB12AA07A81B9900F074FF1E9B002B64
:10661000E3D1049804F00AFF00BF21B05DF804FB49
:1066200082B00190019BDB6801225A7100BF02B069
:106630007047000000B583B04FF0FF330193FFF7C0
:10664000F8FE0421084800F0CFFD0190019B002BCB
:1066500003DA0649412010F02BFD0348FFF7E0FF65
:1066600000BF03B05DF804FBA49F0400F89F040082
:1066700000B583B001900091019B1B681B680099D5
:106680000198984700BF03B05DF804FB00B583B0E4
:106690000190019B1B685B680198984700BF03B09D
:1066A0005DF804FB00B583B00190019B1B689B68FB
:1066B0000198984700BF03B05DF804FB82B00190D9
:1066C0000B468DF80330019BDB689DF803201A719F
:1066D00000BF02B0704782B00190019BDB681B795C
:1066E000184602B0704782B00190019BDB6801221E
:1066F0005A7100BF02B0704782B00190019BDB6805
:106700005B79184602B0704700B585B001900091E2
:10671000154BFF229A60144B00221A60124B002284
:106720005A60114B0022C3F818240F4B0022C3F803
:1067300014240D4B012283F820240C4804F0CCFDD6
:106740000390039B002B01D0039B08E0084805F051
:1067500021F9084A084BD31ADB0802930023184694
:1067600005B05DF804FB00BFA0280020A89E04002F
:1067700058A00400A49F0400BC9E0400024A034BDE
:10678000D31ADB0818467047A49F0400BC9E04007F
:1067900000B587B001900B468DF803309DF80330AB
:1067A000002B1FD0FFF7EAFF04900023059313E0AE
:1067B000059B9B000E4A13440393039B1B881A46B8
:1067C000019B1B689A4204D1019B059A1A60002321
:1067D00009E0059B01330593059A049B9A42E7D390
:1067E000052300E00023184607B05DF804FB00BF56
:1067F000CC25002000B585B001900B468DF8033004
:106800009DF8032001AB11461846FFF7C1FF034670
:10681000002B07D1019BDB00054A13440393039B24
:106820001B6800E00023184605B05DF804FB00BFBC
:10683000BC9E040084B001900B468DF80330019B90
:10684000DB00174A134402939DF80330013B032BEE
:106850001CD801A252F823F0696802007168020096
:10686000796802008368020002238DF80F3011E07E
:1068700004238DF80F300DE0029B1B798DF80F304B
:1068800008E0029B5B798DF80F3003E000238DF860
:106890000F3000BF9DF80F30184604B0704700BF9E
:1068A000BC9E040084B00190009100238DF80F304D
:1068B000019B1B7803F00403DBB2002B24D0019B67
:1068C0001B78C3F30103DBB2012B02D0022B0CD0E7
:1068D00017E0009B1B68019A1288C2F38312D2B2A0
:1068E00013449A1C009B1A600BE0009B1B68019AE2
:1068F0005288C2F3891292B213449A1C009B1A6008
:1069000000BF01238DF80F309DF80F30184604B0FA
:106910007047000000B58BB00023ADF826303E482C
:1069200003F0B0FA3D4803F0ADFA3D4B5B680493C9
:106930003B4B9B680693049A069B134002339B00D3
:10694000374A13440433089304AB19460898FFF7F9
:10695000A9FF0346002B09D0049A069B134002337B
:106960009B002F4A134404330893EDE700BF002334
:10697000079311E0049B5A1C0492069A1340079A4D
:10698000920001A90A44264902339B000B445B682C
:106990001360079B01330793079B012BEAD99DF8EE
:1069A0000430C3F30103DBB2012B10D0022B1CD146
:1069B000BDF80A30ADF82630BDF80630C3F38913B0
:1069C0009BB203339A08049B1344049313E0BDF86D
:1069D0000A30ADF82630BDF80430C3F38313DBB2C0
:1069E0001A46049B1344049305E00E494FF4BF700C
:1069F00010F05EFB00BF094803F050FA0590059BBC
:106A0000002B02D0049B064A5360BDF8263018467E
:106A10000BB05DF804FB00BFB82C0020B42C0020A4
:106A2000A028002068A0040000B585B00021074818
:106A300003F05DF90390039B0293029B83F3100321
:106A40000193019B184605B05DF804FBBC2C0020A7
:106A500000B589B00390029101920093039B1B0C37
:106A60000793FFF7E1FF0690FFF788FE0246079BBA
:106A7000934204D3214940F2A31010F019FB069B66
:106A80001904009B5A1C0A9B1340079A0A431C498D
:106A900002339B000B445A60009A0A9B1340023356
:106AA0009B00174A134404330593039B03F0070329
:106AB000D9B2059A137861F3C5031370019B03F0F3
:106AC0000F03D9B2059A138861F389131380029BCF
:106AD000C3F31501059A136861F39F231360059AA8
:106AE0001378012161F301031370059A13786FF392
:106AF0008203137000BF09B05DF804FB68A00400B6
:106B0000A028002000B58DB00390029113468DF8A7
:106B10000730039B02330A9301238DF827300023AB
:106B20008DF81B300DF11B03184600F0D3FE404BCF
:106B30001A68029B1A603E4B9A683D4B59683C4B61
:106B40001B68CB1A134401330B9314E0012139481D
:106B500003F05CF9FFF7DEFE08900899354803F072
:106B600055F9334B9A68324B5968314B1B68CB1A35
:106B7000134401330B930A9A0B9B9A42E6D89DF873
:106B80002730002B48D0002305939DF80730002BB9
:106B900017D09DF81430012262F301038DF81430F0
:106BA0009DF8143043F004038DF81430039B03F078
:106BB0000F03DAB2BDF8143062F38913ADF8143064
:106BC00016E09DF81430022262F301038DF81430B0
:106BD0009DF8143043F004038DF81430039BC3F385
:106BE00009039AB2BDF8163062F38F13ADF8163070
:106BF0000F4B1A680E4B9B68134002339B000C4AE4
:106C0000134404330793059A079B1A60084B1A68CC
:106C10000A9B1344064A13609DF81B30184600F087
:106C20006FFE9DF8273018460DB05DF804FB00BFDD
:106C3000A0280020BC2C002000B58BB0059004914A
:106C4000039202931F4B9B68079306AB01221946E0
:106C50000298FFF757FF0346002B24D0069B023310
:106C600009930023089311E0089B9B00039A1A44A0
:106C7000099B591C099107990B401268114902336D
:106C80009B000B445A60089B01330893089A029BAF
:106C90009A42E9D3069A079B00931346029A0499F5
:106CA0000598FFF7D5FE074B93F82034002B05D04D
:106CB00000BF00F093F80346002BFAD100BF0BB0E1
:106CC0005DF804FBA028002000B583B0019000917E
:106CD0000023002200990198FFF7AEFF00BF03B028
:106CE0005DF804FB00B587B0039002910192019B0F
:106CF000059305AA012302990398FFF79DFF00BFA2
:106D000007B05DF804FB00B587B0039002910192D3
:106D10000093019B0493009B059304AA022302990C
:106D20000398FFF789FF00BF07B05DF804FB00B5CB
:106D300089B00390029101920093019B0593009BFF
:106D400006930A9B079305AA032302990398FFF76A
:106D500073FF00BF09B05DF804FB00B589B0039074
:106D6000029101920093019B0493009B05930A9B5F
:106D700006930B9B079304AA042302990398FFF739
:106D80005BFF00BF09B05DF804FB00B58BB003905A
:106D9000029101920093019B0593009B06930C9B2B
:106DA00007930D9B08930E9B099305AA052302994F
:106DB0000398FFF741FF00BF0BB05DF804FB000034
:106DC000054B5A68044B1B689A420CBF01230023F1
:106DD000DBB21846704700BFA028002000B599B06C
:106DE000FFF7EEFF0346002B01D00023BCE19A4BD6
:106DF0000022C3F81824BFF34F8F974B5B680493AE
:106E0000954B9B681093049A109B134002339B0090
:106E1000914A1344043311930023179300231693CC
:106E200000230F9304AB19461198FFF73BFD03466F
:106E3000002B19D0884BD3F81834002B14D1864B73
:106E40001A68049B9A4205D8834B1B68824A536098
:106E5000002389E1049A109B134002339B007E4A71
:106E6000134404331193DDE70023159311E0049BD1
:106E70005A1C0492109A1340159A920001A90A44D0
:106E8000754902339B000B445B681360159B01330B
:106E90001593159B012BEAD99DF8043003F00303E9
:106EA000DBB2022B40F09C80BDF80630C3F389139F
:106EB0009BB20E93BDF80630C3F389139BB2502BDF
:106EC00028BF50239BB20D930D9BC3F309039AB2C5
:106ED000BDF8063062F38F13ADF806300D9B083312
:106EE0000C939DF80430C3F3C203DBB20F930C99EB
:106EF0005A4804F0FCF91790179B002B00F0D08043
:106F0000179804F084FA01A9169B0822179804F038
:106F100039FB169B08331693049BDA43109B1340EE
:106F200001339B000B930D9A0B9B9A4242D90B9B0A
:106F3000002B08D0049A109B134002339B00464A52
:106F40001344043300E0464B0A930B9B002B02D002
:106F50000B9BDBB201E00D9BDBB28DF827300B9B66
:106F6000002B01D03E4B00E0002308930B9B002B2D
:106F700006D00D9BDAB20B9BDBB2D31ADBB200E07A
:106F800000238DF81F309DF82720169B0A9917982B
:106F900004F0F8FA9DF82730169A13441693089BCC
:106FA000002B16D09DF81F20169B0899179804F007
:106FB000E9FA0EE0049A109B134002339B00264A24
:106FC000134404330693169B0D9A0699179804F000
:106FD000D9FA0E9B03339A08049B134404935FE091
:106FE0009DF8043003F00303DBB2012B58D1BDF848
:106FF0000430C3F38313DBB2062B28BF0623DAB2B7
:10700000BDF8043062F38913ADF80430BDF80430E4
:10701000C3F38313DBB2023305939DF80430C3F34B
:10702000C203DBB20F93059B9B0019460B4804F08B
:107030005EF91790179B002B32D0179804F0E7F9F0
:1070400001A9169B0822179804F09CFA169B083396
:107050001693002315931AE0A0280020A89E040090
:10706000AC280020049B5A1C0492109A134002334F
:107070009B003F4A1344191D169B0422179804F0E5
:1070800081FA169B04331693159B01331593BDF8B3
:107090000430C3F38313DBB21A46159B9342E1D34A
:1070A000179B002B40D0324BD3F810341493304B45
:1070B000D3F81834002B1BD0179804F0B7F94DE023
:1070C00000238DF84F301498FFF716FB0346002B72
:1070D00002D001238DF84F309DF84F30002B03D0A4
:1070E00017991498FFF7C4FA149BDB681B68149374
:1070F000149B002BE4D1179804F098F900238DF825
:1071000003300DF10303184600F0E4FB184BD3F8ED
:107110001834002B02D1049B154A53609DF80330AC
:10712000184600F0EDFB19E0114BD3F81034129320
:1071300006E01298FFF7B6FA129BDB681B68129301
:10714000129B002BF5D10B4A0B4BD31ADB081B0407
:1071500043F0020309491846FFF7B6FDFFF730FE7A
:10716000034683F00103DBB2184619B05DF804FB57
:10717000A0280020049F0400BC9E0400C0A00400BE
:1071800000B585B00023039323E0164BD3F81034E9
:10719000029301238DF807300FE00298FFF79BFA66
:1071A00003461A46039B934203D100238DF8073010
:1071B00006E0029BDB681B680293029B002BECD16C
:1071C0009DF80730002B01D0039B07E0039B0133A0
:1071D0000393039B092BD8DD4FF0FF33184605B00E
:1071E0005DF804FBA028002000B585B001900B4697
:1071F0008DF80330FFF7C4FF0390039BB3F1FF3F0B
:1072000001D1039B22E0039BDBB219460198FFF7F3
:1072100055FA104BD3F81034002B08D10D4A019BBE
:10722000C2F81034019BDB6800221A600DE0094BA4
:10723000D3F81034DA68019BDB6812681A60054BDA
:10724000D3F81034DB68019A1A60039B184605B026
:107250005DF804FBA028002000B583B00C4BD3F8E8
:10726000103401930A4B012283F8202409E001988D
:10727000FFF739FA0198FFF709FA019BDB681B68F1
:107280000193019B002BF2D100BF03B05DF804FB1A
:10729000A028002082B00190009100BF02B070478A
:1072A00010B584B003900291039BDB88002B0AD0B9
:1072B000039BDB881A461F4B009313461E4A1F4947
:1072C000029802F027FF039B1B7A052B2ED0039B0D
:1072D0005B7A002B12D0039B9B881A46039B1B7A78
:1072E00019461046FFF7A6FA03461A46144B53F800
:1072F00022301A461349029802F00CFF039B1B68C8
:1073000019460298FFF7C6FF039B1B7A1A460E4BDD
:1073100053F82240039B9B8800211846FFF76AFA26
:10732000034622460949029802F0F4FE00BF04B069
:1073300010BD00BFF4A0040004A104003CA104009F
:10734000E825002054A10400D425002058A1040001
:1073500000B585B00390029113468DF80730039B6A
:107360001B7A052B0FD0039B5B7A002B06D00D4BAD
:107370001B681A460C49029802F0CCFE0B49029891
:1073800002F0C8FE07E09DF80730002B03D0074944
:10739000029802F0BFFE029802F09AFE00BF05B00C
:1073A0005DF804FBE825002054A1040064A104005A
:1073B00030B58BB007900691059204930E9B1B7B12
:1073C0008DF827300E9B00221A730E990498FFF750
:1073D00067FF059B062B7FD801A252F823F000BF60
:1073E000FD73020007740200177402002B74020080
:1073F0004974020071740200A174020007990E988A
:1074000002F088FE69E0069B1B681A4607990E98F1
:1074100002F080FE61E0069B1A68069B04331B683D
:1074200007990E9802F076FE57E0069B1A68069BB5
:1074300004331968069B08331B6800930B460799B1
:107440000E9802F067FE48E0069B1968069B04331D
:107450001868069B08331B68069A0C321268019262
:10746000009303460A4607990E9802F053FE34E053
:10747000069B1868069B04331C68069B08331B6830
:10748000069A0C321268069910310968029101922D
:1074900000932346024607990E9802F03BFE1CE03B
:1074A000069B1C68069B04331D68069B08331B68FB
:1074B000069A0C3212680699103109680698143041
:1074C000006803900291019200932B46224607998F
:1074D0000E9802F01FFE00E000BF00220E990498F3
:1074E000FFF736FF0E9B9DF827201A7300BF0BB0E5
:1074F00030BD00BF00B587B00390029101920093A8
:10750000029B082B60D8009B1B7B8DF81330009BDF
:1075100000221A7300990198FFF7C2FE0023059319
:1075200014E0059A029B9A4209D2039A059B1344E0
:107530001B781A462649009802F0ECFD03E0254925
:10754000009802F0E7FD059B01330593059B072B8F
:10755000E7D92149009802F0DDFD0023059326E0DC
:10756000059A029B9A421BD2039A059B13441B78EF
:107570008DF812309DF812307E2B0AD89DF812300B
:10758000184621F069F90346002B02D09DF812300D
:1075900000E02E231A461149009802F0BBFD03E0DB
:1075A0000F49009802F0B6FD059B01330593059B3A
:1075B000072BD5D9012200990198FFF7C9FE009B3E
:1075C0009DF813201A7300E000BF07B05DF804FBBC
:1075D00068A1040070A1040074A1040078A1040053
:1075E0007CA1040086B003900291019201238DF8E2
:1075F00017309DF81730204A039B13601E4A029BE8
:1076000053601D4A019B9360039B44F20102934225
:1076100013D0039B44F20202934221D1019B164AEC
:10762000D360154BDB681B881A46134B9A61124BCB
:10763000DB685B68104AD36112E0019B0E4A13615C
:107640000D4B1B699B680C4A53610B4B1B691B68F4
:10765000094A9361084B1B695B68074AD36100BF05
:1076600072B600BF9DF81730DBB2002BFAD162B6BC
:1076700000BF06B0704700BFC42C002000B583B027
:1076800002900091019244F2010071466A4600F0B6
:1076900003F803B000BD00BF30B58BB00790069172
:1076A000059272B6FFF7D8FD00BFFFF797FB0346C0
:1076B000002BFAD1079B41F2010293421FD0079B96
:1076C00041F20102934203D8079B012B0BD061E0EA
:1076D000079B44F2010293422FD0079B44F202021F
:1076E000934218D056E0394A394BD31ADB081B04B1
:1076F00043F0010337491846FFF7E6FA57E0334AEB
:10770000334BD31ADB081B0443F0010332491846FC
:10771000FFF7DAFA4BE0059B09932C4A2C4BD31A5E
:10772000DB081B0443F00100099B5B681A46099BB8
:107730001B882A49FFF7E7FA39E0059B0893234A9B
:10774000234BD31ADB081B0443F00104089B9D68FC
:10775000089B9B68184604F097F903461846089B57
:107760005B681946089B1B68069A02920193009178
:1077700003462A461A492046FFF707FB134A144BD3
:10778000D31ADB081B0443F0010316491846FFF720
:107790009BFA0CE00D4A0E4BD31ADB081B0443F096
:1077A0000103069A10491846FFF79CFA00BF0F4BD9
:1077B0001B6803F00103002B00D000BE059A069958
:1077C0000798FFF70FFF00BF0BB030BD049F040008
:1077D000BC9E0400DCA10400FCA1040020A2040063
:1077E0003CA2040064A2040078A20400F0ED00E0D2
:1077F00082B0EFF310830093009B019372B6019B5C
:10780000184602B0704762B600BF704700B585B039
:107810000190FFF7EDFF0390164B9B68002B1BD1E7
:10782000144B01229A60144BD3F88020134B134061
:10783000104A1360104B114AC3F880200E4BD3F846
:1078400084300C4A53600C4B4FF0FF32C3F8842055
:10785000019B00221A7002E0019B01221A70039B17
:10786000002B01D1FFF7CFFF0023184605B05DF8CC
:1078700004FB00BFE42C002000E100E0FC06FFBD9B
:1078800000B585B003468DF80730104B9B68002B80
:1078900016D09DF80730002B12D1FFF7A9FF0390F7
:1078A0000B4A0A4B1B681360094A084B5B6853601C
:1078B000064B00229A60039B002B01D1FFF7A3FF28
:1078C0000023184605B05DF804FB00BFE42C00203F
:1078D00000E100E000B583B0019000F02BF8034612
:1078E000012B03D0054943200FF0E2FB0198FFF77D
:1078F0008DFF00BF03B05DF804FB00BF90A2040041
:1079000000B583B003468DF8073000F013F8034646
:10791000012B03D0064951200FF0CAFB9DF8073018
:107920001846FFF7ADFF00BF03B05DF804FB00BFD2
:1079300090A2040084B0EFF305830193019BC3F38D
:1079400008030393039B002B0DD1EFF314830093E3
:10795000009B0293029B03F00103002B0CBF012349
:107960000023DBB200E00123184604B0704782B068
:107970000190019B03F00303002B0CBF01230023A4
:10798000DBB2184602B0704700B585B00190002305
:1079900003930EE00A4A039B52F82330002B05D0D4
:1079A000074A039B52F8233001989847039B013301
:1079B0000393039B032BEDD900BF05B05DF804FBD7
:1079C000002D002082B001900091019B1B78013BAB
:1079D000052B61D801A252F823F000BFF57902000F
:1079E000FD790200237A0200557A0200757A0200BE
:1079F000917A0200009B00221A704EE0009B012247
:107A00001A70019B1A89009B9A81019B9A88009B9E
:107A1000DA81019BDA68009B9A60009B00221A744D
:107A20003BE0009B02221A70019B1A89009B9A81FD
:107A3000019B9A88009BDA81019BDA68009B9A601F
:107A4000019B9B7D062B0CBF01230023DAB2009B18
:107A50001A7422E0009B03221A70019BDA88009BB3
:107A60009A81019B1A89009BDA81019BDA68009B4D
:107A70009A6012E0009B04221A70019BDA88009B36
:107A80009A81009B0022DA81009B00229A6004E028
:107A9000009B05221A7000E000BF00BF02B07047D3
:107AA00084B001900091019B0393039A009B9A423A
:107AB00006D2039B1B68B3F1FF3F01D0012300E016
:107AC000002303F00103DBB2184604B0704782B014
:107AD0000190019B5B8803339B00019A1344184675
:107AE00002B0704700B583B0019000910198FFF794
:107AF000EEFF0246009B934201D2022311E0019B5C
:107B00009B884FF6FF72934208D0019B1B88002B85
:107B100004D0019B9B68B3F1FF3F01D1012300E03A
:107B20000023184603B05DF804FB000000B583B0E5
:107B30000190019B002B13D00D4BDB681A46019B73
:107B400093420DD30A4B1B691A46019B934207D8F7
:107B50000198FFF70CFF0346002B01D0012300E042
:107B6000002303F00103DBB2184603B05DF804FB09
:107B7000B825002082B00190019B002B04D0019B0E
:107B80001B680B4A934201D003230DE0019B043391
:107B90001B68084A934204D0074A934203D1012349
:107BA00002E0002300E00323184602B0704700BF44
:107BB000DEC0ADDEFE011EF1FF011EF184B00190BA
:107BC000019B1B68B3F1FF3F06D0019B1B680E4A67
:107BD000934201D0002314E0012303930CE0039BA4
:107BE0009B00019A13441B68B3F1FF3F01D00023AF
:107BF00007E0039B01330393039BB3F5806FEED340
:107C00000123184604B07047DEC0ADDE82B00346E3
:107C10000A46ADF806301346ADF80430BDF806202C
:107C2000134913469B0013449B000B4408331A88E6
:107C3000BDF804301344ADF80430BDF806200C49FB
:107C400013469B0013449B000B440A331A88BDF86B
:107C500004301344ADF80430BDF80430B3F5806F40
:107C600094BF01230023DBB2184602B0704700BF67
:107C7000B02D002084B00190009148F20963039375
:107C80000023ADF80A3027E0BDF80A201649134654
:107C90009B0013449B000B4404331B68009A9A42D8
:107CA00015D9BDF80A20104913469B0013449B00C8
:107CB0000B4404331B6803F58053009A9A4206D2A2
:107CC00000230393019BBDF80A201A8008E0BDF849
:107CD0000A300133ADF80A30BDF80A30012BD3D990
:107CE000039B184604B07047B02D002000B589B042
:107CF000039002910192039B03F580530693039B2B
:107D000008330393029B02221A80039B079332E0FD
:107D100006990798FFF7E6FE03468DF817309DF8A1
:107D20001730002B0AD1079B9A68184B1B689A42A0
:107D300013D9079B9B68154A13600EE0019B002B2B
:107D400002D0019B01221A709DF81730022B04D13A
:107D5000029B4FF480621A8014E0029B1A88079BF2
:107D60005B8813449BB203339AB2029B1A80079834
:107D7000FFF7ADFE079006990798FFF791FE0346BF
:107D8000002BC5D109B05DF804FB00BF102D002009
:107D900082B001900091009B9B7D022B09D9019B31
:107DA0001A89009BDB8813449BB203339AB2019B70
:107DB0001A81019B5A89009BDB88D31A9BB2033B33
:107DC0009AB2019B5A8100BF02B0704700B583B0E0
:107DD000074B1B681946002300930823054A0648F1
:107DE00002F0E6FD0346184603B05DF804FB00BF51
:107DF000D82D00202CA30400B825002000B585B0A4
:107E000003900399002300930823044A044802F0D6
:107E1000CFFD0346184605B05DF804FB34A304000B
:107E2000B825002000B585B003460091ADF80630B6
:107E300000238DF80F30BDF806300333ADF80A305B
:107E4000BDF80A3040F2FE32934202D948F208638C
:107E50004BE00023ADF80C303BE0BDF80C20254989
:107E600013469B0013449B000B441B78002B2BD123
:107E7000BDF80A20BDF80C3011461846FFF7C6FEC3
:107E80000346002B20D001238DF80F30009BBDF856
:107E90000C201A80BDF80C20164913469B00134491
:107EA0009B000B440A331988BDF80C20BDF80A303A
:107EB0000B4498B20F4913469B0013449B000B449C
:107EC0000A3302461A8008E0BDF80C300133ADF8E1
:107ED0000C30BDF80C30012BBFD99DF80F30002BB2
:107EE00001D0002301E048F20663184605B05DF8B2
:107EF00004FB00BFB02D002082B003460A46ADF857
:107F000006301346ADF80430BDF804200D49134681
:107F10009B0013449B000B440A331A88BDF80630BB
:107F2000D31A9BB2BDF80420033B98B2054913460F
:107F30009B0013449B000B440A3302461A8000BF87
:107F400002B07047B02D002008B50121024801F0B1
:107F50005DFF0346184608BD102D002000B585B012
:107F600003460091ADF80630BDF8062022491346BD
:107F70009B0013449B000B4404331B6803F58053A0
:107F80000293009B1B680393039B002B04D0039870
:107F9000FFF79DFD039023E0BDF806201649134628
:107FA0009B0013449B000B4404331B68083303936A
:107FB00016E002990398FFF795FD0346012B08D0C0
:107FC000022B0BD0002B0BD1009B039A1A600123CC
:107FD0000EE00398FFF77BFD039001E0002307E02C
:107FE00002990398FFF75CFD0346002BE1D10023C3
:107FF000184605B05DF804FBB02D002000B585B033
:1080000001900091019B5B681846FFF78FFD0346C6
:10801000002B19D0019B1A89244B1B899A4213D13A
:10802000019B1A68019B5B689B689A420CD1019B7B
:108030005B6819460098FFF71DFE0346002B0CBF36
:1080400001230023DBB22CE0009B00221A8023E0F6
:108050000023029310E0029B0393039B9A68019B09
:108060001B689A4208D1029A019B5A600F4B1A89E9
:10807000019B1A81012314E0009B1B8802AA114670
:108080001846FFF76BFF0346002BE4D1009B1B88CB
:1080900001339AB2009B1A80009B1B88012BD7D911
:1080A0000023184605B05DF804FB00BFE02D00205A
:1080B00000B587B00390029101920093324B1B7878
:1080C000DBB283F00103DBB2002B02D048F2016384
:1080D00055E0019B002B02D0009B002B49D148F2B8
:1080E00004634CE0009B9B881946284A0B469B0082
:1080F0000B449B0013441B78002B33D124E0009BDE
:108100001B680593039B002B06D0059B9A88039B55
:108110001B889A4200D017E0029B002B06D0059BDB
:108120001A88029B1B889A4200D00DE0059B9A6832
:10813000019B1A60009B1A68019B5A60144B1A89B4
:10814000019B1A8100231AE0009B9B88009A11462C
:108150001846FFF703FF0346002BD0D1009B0022F7
:108160001A6000E000BF009B9B8801339AB2009B1D
:108170009A80009B9B88012BB4D948F2096318466A
:1081800007B05DF804FB00BFF02C0020B02D0020EC
:10819000E02D002000B587B00291019200930346C4
:1081A000ADF80E30BDF80E20314913469B00134444
:1081B0009B000B4404331B6808330593BDF80E2065
:1081C0002B4913469B0013449B000B4404331B684C
:1081D00003F58053049341E004990598FFF782FC6E
:1081E0000346012B04D0022B22D0002B15D034E003
:1081F000019B1B8801339AB2019B1A80009B1A884D
:10820000059B5B8813449BB203339AB2009B1A8090
:108210000598FFF75CFC059020E0029B1B8801336A
:108220009AB2029B1A800598FFF751FC059015E061
:10823000019B1B8801339AB2019B1A80009B1A880C
:108240000499059BCB1A9B109BB213449AB2009BD6
:108250001A80089B01221A7007E000BF0499059854
:10826000FFF71EFC0346002BB6D107B05DF804FBF8
:10827000B02D002000B585B00190084B019918463B
:1082800001F000FC03901C220021039820F043FD24
:10829000039B184605B05DF804FB00BFA02D00202D
:1082A00000B583B00190044B0199184601F014FC0D
:1082B00000BF03B05DF804FBA02D002000B583B023
:1082C0000190054B0199184601F01AFC0346184627
:1082D00003B05DF804FB00BFA02D002000B583B003
:1082E0000190044B0199184601F034FC00BF03B023
:1082F0005DF804FBA02D002008B50A4B1B68002B7D
:1083000004D109494FF424700EF0D2FE0121054832
:1083100001F094FD0346002B14BF01230023DBB2C0
:10832000184608BDF82C0020E4A2040000B587B070
:10833000002305930023ADF812300323ADF810306D
:1083400000238DF80F300023ADF80C30F3E0BDF8BA
:108350000C301A03804BDB68134402930298FFF73A
:1083600009FC03468DF807309DF80730012B00F01B
:108370009C80032B02D0002B62D0D7E00298FFF73D
:108380001DFC0346002B3BD0744B1B68002B29D0EF
:10839000BDF81220724913469B0013449B000B4406
:1083A00002221A70BDF812206D4913469B00134437
:1083B0009B000B440433029A1A60BDF812206849EE
:1083C00013469B0013449B000B44083302221A807F
:1083D000644ABDF812305380BDF812300133ADF855
:1083E000123008E05D4A029B13605C4B02229A80C7
:1083F00001238DF80F30059B43F00103059395E0B1
:10840000BDF81030013BADF81030BDF812205449D2
:1084100013469B0013449B000B440433029A1A60DA
:10842000BDF812204E4913469B0013449B000B4499
:1084300003221A70BDF812300133ADF8123075E026
:10844000BDF81220464913469B0013449B000B4481
:1084500000221A70BDF81220414913469B001344B4
:108460009B000B440433029A1A60BDF81220134695
:108470009B0013449B000833394A9918BDF8122019
:1084800013469B0013449B001033354A13441A468D
:108490000298FFF72BFC059B43F002030593BDF800
:1084A00012300133ADF8123040E09DF80F30002B50
:1084B00029D0BDF812202A4913469B0013449B0083
:1084C0000B4402221A70BDF81220244B196824486C
:1084D00013469B0013449B00034404331960BDF80A
:1084E00012201F4913469B0013449B000B44083382
:1084F00002221A801B4ABDF812305380BDF8123098
:108500000133ADF81230154A029B13600022164960
:108510000298FFF7EBFB114B9B88022B01D1042340
:1085200000E00823059A1343059300BFBDF80C3003
:108530000133ADF80C30BDF80C30022B7FF607AFDD
:10854000BDF81030012B01D800230593059BDBB249
:10855000184607B05DF804FBB8250020D82D002090
:10856000B02D0020E02D0020DC2D002000B587B0CC
:1085700003900291039B02229A750299039B1A1D94
:10858000002300930423074802F012FA0590059B8C
:10859000002B01D1002301E048F20D63184607B01B
:1085A0005DF804FBB825002000B587B00390029168
:1085B000039B1B69002B01D0032200E00122039BD7
:1085C0009A75029B08331946039B03F10C020023A2
:1085D00000930423074802F0EBF90590059B002B5C
:1085E00001D1002301E048F20D63184607B05DF8A1
:1085F00004FB00BFB825002000B587B003900291AE
:10860000039B1B78032B01D1052200E00622039B6C
:108610009A75029B04331946039B03F10802002359
:1086200000930423074802F0C3F90590059B002B33
:1086300001D1002301E048F20D63184607B05DF850
:1086400004FB00BFB825002000B587B003900B469F
:10865000ADF80A3003990023009304230D4A0E4815
:1086600002F0A6F90590059B002B02D048F20D639D
:108670000BE0BDF80A20094913469B0013449B00F8
:108680000B44103301221A700023184607B05DF81E
:1086900004FB00BF3CA30400B8250020B02D00203F
:1086A00000B589B0019002AB00221A605A609A604E
:1086B000019BDB6802930DF1160202AB11461846CE
:1086C000FFF79CFC0346002B12D0039B0693069BEE
:1086D0009A88019BDA80069B1A88019B1A81039B6A
:1086E000BDF8162011461846FFF7AEFF079002E0CE
:1086F00048F209630793079B184609B05DF804FB2D
:1087000000B587B00190019B981D02AA0D4B002176
:10871000FFF7CEFC0590059B002B08D1039A094B6F
:108720009B8819461046FFF78FFF059004E008224A
:108730000021044820F0EFFA059B184607B05DF8C9
:1087400004FB00BFF02D002000B587B0039002911C
:10875000039B01229A75029B0C331846039B1A69EE
:10876000039BDB889900002300930B4601460748D2
:1087700002F01EF90590059B002B01D1002301E0BA
:1087800048F20D63184607B05DF804FBB8250020D9
:1087900082B0184B1B8901339AB2164B1A81154BC4
:1087A00000225A80134B00221A730023ADF80630C2
:1087B00018E0BDF80620104913469B0013449B00A7
:1087C0000B441A78BDF80630002A0CBF01220022A3
:1087D000D1B2084A13440A469A72BDF806300133F2
:1087E000ADF80630BDF80630012BE2D900BF02B06B
:1087F000704700BFE02D0020B02D002084B0019014
:1088000000238DF80F300023ADF80C3031E0BDF8B7
:108810000C301C4A13449B7A002B25D0BDF80C3039
:10882000184A134400229A72BDF80C2016491346C8
:108830009B0013449B000B440C331B68002B13D18B
:10884000BDF80C20104913469B0013449B000B44B9
:1088500010331B78002B07D0019BBDF80C201A8029
:1088600001238DF80F3008E0BDF80C300133ADF86E
:108870000C30BDF80C30012BC9D99DF80F301846CB
:1088800004B07047E02D0020B02D002008B5084B43
:1088900005221A70074B02229A80064B1B68194664
:1088A00000230122044802F065F90346184608BD7A
:1088B000E02D0020D82D0020B825002000B583B081
:1088C000164B5B88ADF80230BDF802201449134600
:1088D0009B0013449B000B440C331B68002B14D1EA
:1088E0000E4B04221A70BDF802200D4913469B005E
:1088F00013449B000B4404331B68194600230122D8
:10890000084802F037F9019002E0FFF7BFFF01903D
:10891000019B184603B05DF804FB00BFE02D00206A
:10892000B02D0020B825002000B587B0114B5B6842
:108930000593114B1A68104B9B889B0013440493BA
:10894000059B5B880333ADF80E300A4B03221A7087
:108950000499084B5A68BDF80E3098000023009324
:108960000346064802F024F80346184607B05DF8AF
:1089700004FB00BFE02D0020D82D0020B8250020EA
:1089800000B583B00A4B5B880A491846FFF7E6FA40
:108990000346002B03D0FFF7C7FF019002E0FFF76B
:1089A0008DFF0190019B184603B05DF804FB00BFEA
:1089B000E02D0020E42D002008B50A4B06221A7095
:1089C000084B5B881946084A0B469B000B449B00EA
:1089D000134404331B681846FFF710FA0346184681
:1089E00008BD00BFE02D0020B02D002008B5054BCC
:1089F00007221A70034B00225A60FFF7E7F903467B
:108A0000184608BDE02D002008B50D48FFF7F6FE1A
:108A1000034683F00103DBB2002B0BD0094B00228D
:108A20001A70084B00225A80064B00225A6041F609
:108A30001D5302E0FFF7A4FF0346184608BD00BF20
:108A4000E22D0020E02D002082B0094B5B680193ED
:108A5000019B5B880333ADF80230064B9A88BDF862
:108A6000023013449AB2034B9A8000BF02B07047A1
:108A7000E02D0020D82D002082B0184B1B680193F8
:108A8000174B5B881946174A0B469B000B449B000B
:108A9000134404331B68114A1360114B5B88194659
:108AA000104A0B469B000B449B0013440433019A6D
:108AB0001A600B4B5B881946084B9888094A0B468D
:108AC0009B000B449B001344083302461A80034B5F
:108AD00002229A8000BF02B0704700BFD82D00204C
:108AE000E02D0020B02D002008B51A4B1B78072B75
:108AF0002CD801A252F823F0198B02004D8B0200F2
:108B00004D8B0200258B0200318B02003D8B020051
:108B10003D8B0200458B0200FFF73AFE0D4B012210
:108B20001A7014E0FFF790FF0A4B02221A700EE051
:108B3000FFF7A2FF074B06221A7008E0054B072239
:108B40001A7004E0034B01221A7000E000BF00BF5E
:108B500008BD00BFE02D002000B587B00190009156
:108B600048F20E630593019B002B05D0634B002256
:108B70005A604FF40643BCE0009B1B79032B00F2C4
:108B8000AB8001A252F823F0998B0200A78B020060
:108B9000358C0200558C0200009B01221A71FFF7F0
:108BA00015F905909BE000238DF813300023ADF8F4
:108BB00010302BE0BDF81020514913469B001344A0
:108BC0009B000B441B78022B1BD1BDF810204C4995
:108BD00013469B0013449B000B4400221A70012390
:108BE0008DF81330BDF81020454913469B001344FF
:108BF0009B000B4404331B681846FFF7FFF80590F1
:108C000008E0BDF810300133ADF81030BDF8103079
:108C1000012BCFD99DF8133083F00103DBB2002B79
:108C20005CD0364B01221A70344B00225A6041F658
:108C30001D535EE0009B00221A71324B02229A8083
:108C4000304B1B681946002301222F4801F092FF88
:108C5000059044E0009B00221A712A4B1B681846BD
:108C6000FFF7CCF80590294B5B88ADF80E30254B0B
:108C70001B680293BDF80E20214913469B00134444
:108C80009B000B4404331B681E4A1360BDF80E2082
:108C90001B4913469B0013449B000B440433029A68
:108CA0001A60BDF80E20174B9888154913469B0093
:108CB00013449B000B44083302461A80114B0222D6
:108CC0009A80BDF80E200E4913469B0013449B006A
:108CD0000B4400221A7002E000BF00E000BF059BB9
:108CE000002B05D0054B00225A6048F20D6300E0CE
:108CF0000023184607B05DF804FB00BFF02C0020ED
:108D0000B02D0020D82D0020B8250020E02D002017
:108D100000B587B001900091009B9B8A1A461346CC
:108D20009B0013449B003B4A13440493019B002B7C
:108D300006D000990498FFF72BF84FF4064364E03F
:108D4000049B5A68049B1B899B0013440393009B5C
:108D50009B7D062B4DD801A252F823F0A18D020075
:108D6000C58D0200AD8D0200B98D0200798D020023
:108D7000D18D0200EB8D0200274B00225A60009B30
:108D80009B69254A136025492348FFF737F90346B5
:108D900083F00103DBB2002B02D048F2096334E018
:108DA00003990098FFF7E2FB059026E003990098ED
:108DB000FFF7FAFB059020E003990098FFF7C4FC49
:108DC00005901AE003990098FFF716FC059014E04F
:108DD000009B06229A75104B5A68104B1B88194647
:108DE0001046FFF731FC059007E041F61D5305934F
:108DF00003E048F20E63059300BF059B002B03D0F0
:108E000000990498FEF7C4FF059B184607B05DF86B
:108E100004FB00BFB02D0020F82D0020042E002000
:108E200000B585B001900091019B002B02D04FF45A
:108E3000064326E0009B1B79012B0BD0022B16D09A
:108E4000002B18D1009B02221A710098FFF728FC12
:108E5000039015E00098FFF753FC0390039B48F242
:108E6000096293420BD141F61D53039307E041F68B
:108E70001D53039304E048F20E63039300E000BF28
:108E8000039B184605B05DF804FB000000B585B0F3
:108E90000190019B002B02D04FF406433DE0214B93
:108EA0001B7B002B03D01F4B00221A7301E0FFF73E
:108EB0001BFE1C4B1B78013B062B29D801A252F844
:108EC00023F000BFE18E0200E98E0200F18E020065
:108ED000F98E0200118F0200018F0200098F02003B
:108EE000FFF792FD039017E0FFF74AFD039013E0B0
:108EF000FFF71AFD03900FE0FFF7E0FC03900BE093
:108F0000FFF75AFD039007E0FFF770FD039003E0C1
:108F100048F20E63039300BF039B184605B05DF84B
:108F200004FB00BFE02D002000B589B00190404B4C
:108F30001B68002B05D13F48FFF7C0F902463C4BA8
:108F40001A603B4B1B68002B04D13B4940F29B50FD
:108F50000EF0AEF8364B1B681B78013B052B2CD866
:108F600001A252F823F000BF818F0200918F02000E
:108F7000918F0200A18F0200A18F0200B18F020029
:108F80002B4B1B6819460198FFF7E6FD019018E08E
:108F9000274B1B6819460198FFF7BAFE019010E0B5
:108FA000234B1B6819460198FFF73AFF019008E030
:108FB0000198FFF76BFF019003E048F20E63019305
:108FC00000BF019B002B2BD003AB00221A605A601C
:108FD0009A60DA601A61019B41F61D52934201D0FA
:108FE000019B00E000230493114B1B6803AA114668
:108FF0001846FEF7E7FC03AB1846FEF7C5FC0C4B22
:1090000000221A60002301930A48FFF767F9FFF76F
:1090100073F9034683F00103DBB2002B02D186E72C
:1090200000BF00E000BF00BF09B05DF804FB00BF57
:10903000082E00200C2E0020E4A2040008B5012117
:10904000054800F0CBFE0346002B02D10020FFF7BD
:109050006BFF00BF08BD00BFF82C002000B583B037
:109060000190019B5B681846FFF75EFF00BF03B0ED
:109070005DF804FB00B58BB00390029101928DF86E
:1090800003300023ADF824300023ADF82630534BD5
:109090001B78DBB283F00103DBB2002B02D048F275
:1090A000016397E0029B002B02D148F2046391E038
:1090B000029B1B884FF6FF72934203D0029B5B8892
:1090C000002B02D148F2036384E0029B5B681846E0
:1090D000FEF74DFC034683F00103DBB2002B02D008
:1090E00048F2026376E0019B002B11D1029B9B6842
:1090F000ADF826300DF11A02BDF82630114618469B
:10910000FEF790FE0890089B002B09D0089B61E0B9
:10911000019B1B88ADF81A30019B5B88ADF82630A7
:1091200005AB1846FFF7A6F80790079B002B0AD15E
:10913000BDF81A20BDF8263011461846FEF7DCFEB1
:1091400048F2076346E0079B9DF803201A70079BCF
:1091500000229A75BDF81A20079B9A82029B5A68D2
:10916000079B1A61FEF7F0FE0246079BDA60029B3E
:109170001A88079B1A81029B5A88079B9A80079B33
:10918000BDF82620DA809DF80330032B06D1079B1B
:1091900004229A75039B1A68079B9A61079BBDF886
:1091A00024205A8105AB1846FFF77AF8039B002B61
:1091B0000DD0039B00225A60079BDA68039B1A605C
:1091C000039B00229A72064B1A89039B1A81FFF7B0
:1091D00035FF002318460BB05DF804FBF02C00208F
:1091E000E02D002000B585B001900C4B1B68042BCE
:1091F00003D148F20B6303930BE0084B1B6808494B
:10920000019A41F823200121044800F0FFFD0023CA
:109210000393039B184605B05DF804FBFC2C00206B
:10922000002D002084B040F6F8731B68B3F1FF3FB7
:1092300002D10F4B1B6802E040F6F8731B680393E2
:109240004FF080531B6902934FF080535B69019389
:10925000039BB3F1FF3F04D1019B029A02FB03F38E
:1092600000E0039B0093009B184604B0704700BFCA
:109270001410001000B583B04FF440530193FFF772
:10928000D1FF0246054B1A61044B1A69019BD31AA0
:10929000024AD36000BF03B05DF804FBB82500208C
:1092A00008B5FFF7E7FF00220349044801F038FB47
:1092B0000346184608BD00BF68A70400B825002073
:1092C00008B504481C238C22034900F04BFB00BF67
:1092D00008BD00BFA02D0020142D002000B58BB0CC
:1092E00002AB00221A605A609A60DA601A61414B40
:1092F0001B78DBB2002B05D002AB1846FEF744FB0F
:10930000002373E03C4800F0B1FD0346002B01D080
:1093100000236BE0FFF7C4FF0990099B002B01D0ED
:10932000099B63E0FFF7CCFFFFF700F803468DF8D9
:1093300023309DF82330022B03D0062B04D0002BC2
:109340000ED148F20A6351E02A4B01221A70294BD0
:1093500000225A6002AB1846FEF716FB002345E0D8
:1093600000BF01AB1846FEF785FF0790079B002B57
:1093700002D148F2076339E0079B01221A709DF879
:109380002330013B0A2B29D801A252F823F000BF59
:10939000BD930200DD930200BD930200DD93020045
:1093A000D5930200DD930200D5930200DD93020005
:1093B000C5930200CD930200C5930200079B0022D3
:1093C0001A710CE0079B03221A7108E0079B022226
:1093D0001A7104E0079B01221A7100E000BF01AB83
:1093E0001846FEF75DFFFFF729FE002318460BB075
:1093F0005DF804FBF02C0020F42C002000B585B0B3
:1094000001900091019B002B02D0009B002B02D108
:1094100048F204632AE00DF10A0319460198FEF7A9
:10942000EDFD0346002B1FD0019B5B680393BDF845
:109430000A301A4613469B0013449B0008330D4A1A
:10944000134404330121184600F0E0FC009B039A0A
:109450001A60019B5B6803F10C02009B5A60019B40
:1094600001229A72002301E048F20963184605B010
:109470005DF804FBB02D002000B585B00190019B84
:10948000002B02D148F204633BE00DF10A031946B8
:109490000198FEF7B3FD0346002B2ED0BDF80A302D
:1094A00019461A4A0B469B000B449B0013440C338D
:1094B0001B68002B1DD0019B9B7A002B19D0BDF897
:1094C0000A301A46114913469B0013449B000B4473
:1094D0000C331B68591E0D4813469B0013449B0018
:1094E00003440C331960019B00229A7200230393FA
:1094F00006E048F20563039302E048F20963039330
:10950000039B184605B05DF804FB00BFB02D00209A
:1095100000B583B0019000910223002200990198C8
:10952000FFF7A8FD0346184603B05DF804FB00B53D
:1095300083B001900091019B002B02D148F204639B
:1095400006E00323002200990198FFF793FD0346EC
:10955000184603B05DF804FB00B585B00346ADF8CE
:1095600006301A4B1B78DBB283F00103DBB2002B11
:1095700002D048F2016324E0BDF806304FF6FF72D6
:10958000934202D148F203631BE002AB1846FEF798
:1095900071FE0390039B002B02D148F2076310E099
:1095A000039B05221A70039B01221A71039BBDF8CD
:1095B0000620DA8002AB1846FEF772FEFFF73EFD8A
:1095C0000023184605B05DF804FB00BFF02C002016
:1095D00000B583B0154B1B78DBB283F00103DBB21F
:1095E000002B02D048F201631BE06B461846FEF7E1
:1095F00041FE0190019B002B02D148F2076310E06D
:10960000019B06221A706B461846FEF749FE084B6E
:109610001B78002B02D0064B01221A73FFF70EFDB8
:109620000023184603B05DF804FB00BFF02C0020B7
:10963000E02D002000B585B0029201930346ADF8FD
:109640000E300B46ADF80C3003A90DF10E00019B56
:10965000029AFEF72DFD0346184605B05DF804FB9F
:1096600000B585B0034602910192ADF80E300DF1C0
:109670000E01019B029A0020FEF71AFD03461846D0
:1096800005B05DF804FB00B585B003460291019278
:10969000ADF80E300DF10E00019B029A0021FEF78D
:1096A00007FD0346184605B05DF804FB82B0019043
:1096B0000091019B002B02D0009B002B02D148F2AD
:1096C000046304E0019B1A68009B1A60002318469B
:1096D00002B0704710B586B003904FF48063ADF8C8
:1096E00014300023ADF812304F4B1B78DBB283F0FF
:1096F0000103DBB2002B02D048F2016391E0039B2F
:10970000002B02D148F204638BE01222002103985F
:109710001FF001FB039B03221A800023ADF81630D3
:109720007AE0BDF81620414913469B0013449B0084
:109730000B4408331988BDF816203C4813469B009B
:1097400013449B0003440A331B880B44ADF81030CC
:10975000BDF81620354913469B0013449B000B446B
:1097600004331B681846FEF705FA0346032B05D1A0
:10977000039B1B88013B9AB2039B1A80BDF81620FD
:109780002A4913469B0013449B000B440C33196871
:10979000039B5A888BB213449AB2039B5A80039B53
:1097A0001989BDF81620214813469B0013449B00DD
:1097B00003440A331B880B449AB2039B1A81039B10
:1097C0005A89BDF8103013449AB2039B5A81BDF8F0
:1097D0001420BDF81030D31AADF81230039B9B89CA
:1097E000BDF812209A4203D9039BBDF812209A813A
:1097F000039B191D039B9A1D039B03F10E04039BFE
:109800001033BDF8160000932346FEF7C3FCBDF8E5
:1098100016300133ADF81630BDF81630012B80D963
:109820000023184606B010BDF02C0020B02D0020FB
:1098300086B001900091019B53E8011F8AB2D8893C
:1098400002449889824228BF121A1889824202BFB4
:10985000BFF32F8F002307E0C2EA010243E8012093
:109860000028E9D14FF001038DF80F3005900291E7
:109870000492029A009B1A609DF80F30DBB21846E2
:1098800006B0704784B00190019951E8013FC3EAE6
:10989000034341E80132002AF7D10392029300BF4B
:1098A00004B0704786B001900091019B53E8021FFD
:1098B0001FFAA1F2D888824202BFBFF32F8F002384
:1098C0000DE0D88902449889824228BF121AC1EA61
:1098D000024243E802200028E8D14FF001038DF84E
:1098E0000F30059002910492029A009B1A609DF835
:1098F0000F30DBB2184606B0704784B00190019972
:1099000051E8023FC3EA234341E80232002AF7D17B
:109910000392029300BF04B0704786B00190019B90
:1099200053E8021FDA88B1EB314F4FF0000017BF48
:1099300089B242EA024241EA024204E05968B1EBCC
:10994000314F08BF012043E802210029E8D18DF8FA
:109950000F00059104929DF80F30DBB2184606B057
:109960007047000000B585B00390029111461A4679
:109970000B46ADF806301346ADF80430029B002BC1
:109980000CD1234A234BD31ADB081B0443F00103F9
:1099900021491846FDF798F90E2335E0BDF8063049
:1099A000BDF80420B3FBF2F102FB01F29B1A9BB25B
:1099B000002B0CD0164A174BD31ADB081B0443F0BC
:1099C000010316491846FDF77FF909231CE0039BA4
:1099D000029A1A60039B00225A60039B00229A603D
:1099E000039BBDF806209A81039BBDF80420DA8111
:1099F000074A084BD31ADB081B0443F0030308494A
:109A00001846FDF761F90023184605B05DF804FB20
:109A1000049F0400BC9E040040A3040068A304004B
:109A2000A4A3040000B585B001900198FFF775FF6D
:109A300003468DF80F300E4A0E4BD31ADB081B0479
:109A400043F003009DF80F30002B01D00A4B00E0DB
:109A50000A4B1A460A49FDF745F99DF80F30002BCD
:109A600001D0002300E01123184605B05DF804FB87
:109A7000049F0400BC9E0400B4A30400BCA3040023
:109A8000C4A3040000B585B001900091009B194665
:109A90000198FFF7CDFE0346002B07D0019B1B6802
:109AA000009A128813440393039B0BE0074A084B68
:109AB000D31ADB081B0443F0020306491846FDF7DE
:109AC00003F90023184605B05DF804FB049F040069
:109AD000BC9E040008A4040000B583B0019000916E
:109AE000009B1A88009B5B889A4204D10198FFF77B
:109AF000C9FE012300E00023184603B05DF804FB13
:109B000000B585B001900091009B19460198FFF7C0
:109B1000C9FE0346002B07D0019B1B68009A5288A0
:109B200013440393039B0BE0074A084BD31ADB084B
:109B30001B0443F0020306491846FDF7C5F800234D
:109B4000184605B05DF804FB049F0400BC9E0400A9
:109B500054A4040000B583B001900091009B1A88C2
:109B6000009B5B889A4204D10198FFF7C6FE01234F
:109B700000E00023184603B05DF804FB00B585B093
:109B800001900091009B5B099B00019AD018009BFB
:109B900003F01F03012202FA03F3194600F0D6F87E
:109BA000039000BF05B05DF804FB00B583B00190E1
:109BB0000091009B5B099B00019AD018009B03F069
:109BC0001F03012202FA03F3194600F0A7F8024628
:109BD000009B03F01F0322FA03F303F00103002BA1
:109BE00014BF01230023DBB2184603B05DF804FB69
:109BF00000B585B001900091009B5B099B00019A24
:109C0000D018009B03F01F03012202FA03F3DB4389
:109C1000194600F0CBF8039000BF05B05DF804FBD7
:109C200082B001900091009B5B099B00019A134454
:109C30001A68009B03F01F0322FA03F303F00103E9
:109C4000002B14BF01230023DBB2184602B070477B
:109C500000B58BB001900091002309933BE0099B74
:109C60009B00019A13441B68DB430693069B93FAFF
:109C7000A3F30593059BB3FA83F3089323E0099BB1
:109C80005B01089A13440793079A009B9A421ED2DD
:109C900007990198FFF789FF034683F00103DBB2C0
:109CA000002B01D0079B1EE0099B9B00019A1344E7
:109CB0001B68DB430493049B93FAA3F30393039B76
:109CC000B3FA83F30893089B1F2BD8D900E000BF99
:109CD000099B01330993009B013B5B090133099AFE
:109CE0009A42BCD3009B18460BB05DF804FB10B43D
:109CF00087B001900091019B009A53E8004F1046F5
:109D000043E8000191F0000FF7D10594049003910E
:109D1000059B184607B05DF8044B704710B487B038
:109D200001900091019B009A53E8004F44EA020021
:109D300043E8000191F0000FF6D1059404900391DF
:109D4000059B184607B05DF8044B704710B487B008
:109D500001900091019B009A53E8004F44EA0200F1
:109D600043E8000191F0000FF6D1059404900391AF
:109D7000049B184607B05DF8044B704710B487B0D9
:109D800001900091019B009A53E8004F04EA020001
:109D900043E8000191F0000FF6D10594049003917F
:109DA000059B184607B05DF8044B704710B487B0A8
:109DB00001900091019B009A53E8004F04EA0200D1
:109DC00043E8000191F0000FF6D10594049003914F
:109DD000049B184607B05DF8044B704710B487B079
:109DE00001900091019B009A53E8004F04EB0200A0
:109DF00043E8000191F0000FF6D10594049003911F
:109E0000059B184607B05DF8044B704710B487B047
:109E100001900091019B009A53E8004F04EB02006F
:109E200043E8000191F0000FF6D1059404900391EE
:109E3000049B184607B05DF8044B704710B487B018
:109E400001900091019B009A53E8004FA4EB02009F
:109E500043E8000191F0000FF6D1059404900391BE
:109E6000049B184607B05DF8044B704700B583B0FB
:109E7000019001210198FFF751FF0346184603B0F6
:109E80005DF804FB00B583B0019001210198FFF754
:109E90005DFF0346184603B05DF804FB00B583B0D0
:109EA000019000210198FFF769FF0346184603B0AF
:109EB0005DF804FB00B583B001900B468DF80330CC
:109EC000019B002B03D10849E8200DF0F1F8019B1C
:109ED000DA689DF803300199098A01FB03F3134402
:109EE000184603B05DF804FB78A4040000B583B005
:109EF00001900091019B002B03D10849F5200DF042
:109F0000D7F8009B019AD2689B1A019A128AB3FB78
:109F1000F2F3DBB2184603B05DF804FB78A404004A
:109F200000B585B00190019B002B01D10E234CE0C0
:109F3000019B1B68002B03D12649FF200DF0B8F8C8
:109F4000019B5B68002B04D122494FF480700DF017
:109F5000AFF8019B9B68002B04D11E4940F2011011
:109F60000DF0A6F8019BDB68002B04D119494FF4D2
:109F700081700DF09DF8019B1B8A002B04D11549BF
:109F800040F203100DF094F8019B9A68019B5B6806
:109F9000D31A8DF80F30019B1B68019A52681A6022
:109FA00007E0019B1A681368591C11609DF80F2087
:109FB0001A709DF80F305A1E8DF80F20002BF0D12B
:109FC000019B1B6800221A710023184605B05DF83A
:109FD00004FB00BF78A4040000B585B00190019B8C
:109FE000002B04D11F494FF492700DF061F800234B
:109FF000039300238DF80A300DF10A031846FDF78C
:10A0000069FC019B1B681A68019B5B689A421FD917
:10A01000019B1B681A68013A1A601B681B78194675
:10A020000198FFF747FF0390019B9A68019B1B680B
:10A030001B68D31A8DF80B30019B1B681B799DF8A8
:10A040000B209A4204D9019B1B689DF80B201A71C2
:10A050009DF80A301846FDF753FC039B184605B0DF
:10A060005DF804FB78A4040010B584B00190009161
:10A07000019B002B04D1154940F247100DF018F850
:10A08000009B002B04D111494FF4A4700DF010F87F
:10A09000009B039300238DF80B300DF10B03184642
:10A0A000FDF718FC019B1B681C68621C1A60039971
:10A0B0000198FFF71BFF034623709DF80B301846ED
:10A0C000FDF71EFC00BF04B010BD00BF78A4040063
:10A0D00000B583B00190019B002B03D10C493120C6
:10A0E0000CF0E6FF019B9B68002B0CD0019B5B6989
:10A0F000019A1069019A1168019A92689847019B28
:10A1000000229A6000E000BF03B05DF804FB00BFCE
:10A11000C8A404000EB400B584B00190019B002BCC
:10A1200003D1184942200CF0C3FF019B5B69002B4F
:10A1300003D1144943200CF0BBFF019B1B68002B8B
:10A1400003D1104944200CF0B3FF019B5B68002B46
:10A1500003D10C4945200CF0ABFF059B002B0AD026
:10A160000023039306AB039303AB1A4605990198AA
:10A1700000F0B8F900E000BF04B05DF804EB03B0F4
:10A18000704700BFC8A4040000B583B001900B461F
:10A190008DF803309DF803300A2B03D10D2101986F
:10A1A000FFF7F2FF019B1A68019B9B68581C0199FD
:10A1B000886013449DF803201A70019B9A68019BE4
:10A1C0005B689A4202D30198FFF782FF00BF03B099
:10A1D0005DF804FB00B587B00390029101920093F3
:10A1E00000230593009B03F00103002B24D00BE018
:10A1F000029B01330293059B013305939DF81330B5
:10A2000019460398FFF7C0FF029B1B788DF81330A7
:10A210009DF81330002BEBD106E0019B013B01932D
:10A2200020210398FFF7B0FF019A059B9A422ED98F
:10A23000019B002BF1D12AE0029B002B0BD002984E
:10A240001EF0BEFD059006E0019B013B019320211D
:10A250000398FFF799FF019A059B9A420FD9019B3A
:10A26000002BF1D10BE0029B01330293059B0133DC
:10A2700005939DF8133019460398FFF785FF029B5D
:10A280001B788DF813309DF81330002BEBD100BFF5
:10A2900007B05DF804FB000000B589B0039002919F
:10A2A00001920093029B07930123069307E0079A0C
:10A2B000019BB2FBF3F30793069B01330693079AC6
:10A2C000019B9A42F3D2009A069B9A4201D9009BC5
:10A2D00006930B9B03F00103002B22D10A9B002B5A
:10A2E0001FD00B9B03F00203002B06D0009B002B1A
:10A2F00003D130238DF8173002E020238DF817307A
:10A3000008E00A9B013B0A939DF817301946039811
:10A31000FFF73AFF0A9B002B03D0069A0A9B9A424A
:10A32000EFD301230793009B012B03D9009B013B33
:10A33000009309E0029A079BB2FBF3F30493049A9B
:10A34000019B9A4200D205E0079B019A02FB03F3AE
:10A350000793E8E7029A079BB2FBF3F30493049B8D
:10A36000079A02FB03F3029AD31A0293154A049B3D
:10A3700013441B7819460398FFF706FF079A019BC1
:10A38000B2FBF3F30793079B002BE3D10B9B03F086
:10A390000103002B11D00A9B002B0ED006E00A9B74
:10A3A000013B0A9320210398FFF7EEFE0A9B002B46
:10A3B00003D0069A0A9B9A42F1D300BF09B05DF818
:10A3C00004FB00BF5CA5040000B589B005900491B2
:10A3D00003920293049B002BB8BF5B4206930123B8
:10A3E000079307E0039B069A92FBF3F30693079B00
:10A3F00001330793039B069A9A42F3DA029A079B6A
:10A400009A4201D9029B07930A9B002B0AD0049B16
:10A41000002B04DB0B9B03F00403002B02D00A9BF0
:10A42000013B0A930B9B03F00203002B02D0029B1B
:10A43000002B16D00B9B03F00103002B11D10A9BBC
:10A44000002B0ED006E00A9B013B0A9320210598C1
:10A45000FFF79AFE0A9B002B03D0079A0A9B9A42A9
:10A46000F1D3049B002B07DA049B5B4204932D215C
:10A470000598FFF789FE08E00B9B03F00403002B0F
:10A4800003D02B210598FFF77FFE0B9B03F00203FF
:10A49000002B19D00B9B03F00103002B14D1029B5E
:10A4A000002B11D10A9B002B0ED006E00A9B013B2A
:10A4B0000A9330210598FFF767FE0A9B002B03D013
:10A4C000079A0A9B9A42F1D304990B9B01930A9B2A
:10A4D0000093029B039A0598FFF7DEFE00BF09B0C8
:10A4E0005DF804FB00B58FB0059004910392059BC5
:10A4F000002B04D1C84940F252200CF0D9FD059B35
:10A500005B69002B04D1C4494FF415700CF0D0FDE9
:10A51000059B1B68002B04D1BF4940F255200CF06D
:10A52000C7FD059B5B68002B04D1BB4940F2562058
:10A530000CF0BEFD049B002B00F0ED81049B1B780A
:10A540008DF83730049B013304939DF83730002B8E
:10A5500000F0D8819DF83730252B40F0C7810023CB
:10A560000A9301230C93049B1B788DF837309DF8D8
:10A5700037302D2B04D0302B0AD02B2B10D017E0E6
:10A580000A9B43F001030A93049B0133049312E0F6
:10A590000A9B43F002030A93049B013304930AE0ED
:10A5A0000A9B43F004030A93049B0133049302E0E3
:10A5B00000230C9300BF0C9B002BD4D100230993E4
:10A5C0009DF837302A2B0CD1039B1B68191D039A69
:10A5D00011601B68099A13440993049B0133049387
:10A5E0001AE0049B1B788DF837309DF837302F2BFD
:10A5F00012D99DF83730392B0ED8049B01330493C0
:10A60000099A13469B0013445B001A469DF83730A5
:10A610001344303B0993D3E700230B93049B1B782F
:10A620008DF837309DF837302E2B1DD1049B013328
:10A630000493049B1B788DF837309DF837302F2B0F
:10A6400012D99DF83730392B0ED8049B013304936F
:10A650000B9A13469B0013445B001A469DF8373053
:10A660001344303B0B93E4E7049B1B788DF83730A1
:10A670009DF837306C2B03D09DF83730682B07D10D
:10A68000049B01330493049B1B788DF83730EFE76C
:10A690009DF83730253B532B00F2238101A252F85D
:10A6A00023F000BFD9A80200E3A80200E3A802003B
:10A6B000E3A80200E3A80200E3A80200E3A8020066
:10A6C000E3A80200E3A80200E3A80200E3A8020056
:10A6D000E3A80200E3A80200E3A80200E3A8020046
:10A6E000E3A80200E3A80200E3A80200E3A8020036
:10A6F000E3A80200E3A80200E3A80200E3A8020026
:10A70000E3A80200E3A80200E3A80200E3A8020015
:10A71000E3A80200E3A80200E3A80200E3A8020005
:10A72000E3A80200E3A80200E3A80200E3A80200F5
:10A73000E3A80200E3A80200E3A80200E3A80200E5
:10A74000E3A80200E3A80200E3A80200E3A80200D5
:10A75000E3A80200E3A80200E3A80200E3A80200C5
:10A76000E3A80200E3A80200E3A80200E3A80200B5
:10A7700065A80200E3A80200E3A80200E3A8020023
:10A78000E3A80200E3A80200E3A80200E3A8020095
:10A79000E3A80200E3A80200E3A80200F5A7020074
:10A7A0001DA80200E3A80200E3A80200E3A802003B
:10A7B000E3A802001DA80200E3A80200E3A802002B
:10A7C000E3A80200E3A80200E3A80200E3A8020055
:10A7D000A5A80200E3A80200E3A8020089A80200DD
:10A7E000E3A8020041A80200E3A80200E3A80200D7
:10A7F00065A80200039B1B68191D039A11601B6862
:10A800000C930C9B8DF823309DF823301946059846
:10A81000FFF7BAFC66E000BF10A50400039B1B68AD
:10A82000191D039A11601B680C930A9B0193099BE5
:10A8300000930B9B0A220C990598FFF7C5FD51E088
:10A84000039B1B68191D039A11601B680C930C99DC
:10A850000A9B0193099B00930B9B0A220598FFF723
:10A860001BFD3FE0039B1B68191D039A11601B68C9
:10A870000C930C990A9B0193099B00930B9B10224C
:10A880000598FFF709FD2DE0039B1B68191D039A2E
:10A8900011601B6807930A9B099A07990598FFF7AF
:10A8A00099FC1FE0039B1B68191D039A11601B682C
:10A8B0000C9330210598FFF767FC78210598FFF786
:10A8C00063FC0C99002301930823009308231022B2
:10A8D0000598FFF7E1FC05E025210598FFF754FCFA
:10A8E00000E000BF049B0133049305E09DF837307E
:10A8F00019460598FFF748FC049B1B78002B7FF452
:10A900001DAE00E000BF059B1B7B002B04D005980B
:10A91000FFF7DEFB00E000BF0FB05DF804FB00BFF7
:10A9200000B587B0059004910392059B002B10D1D0
:10A93000194A1A4BD31ADB081B0443F00100184ACA
:10A9400018490E2300930B461749FCF7F0F90E2324
:10A950001DE0049B002B10D10F4A104BD31ADB08CB
:10A960001B0443F00100114A0E490E2300930B46CD
:10A970000D49FCF7DCF90E2309E0059B049A1A60E7
:10A98000059B1B681B680399059898470346184662
:10A9900007B05DF804FB00BF2C9F0400BC9E0400C0
:10A9A0007CA5040020A7040084A50400B0A5040031
:10A9B00010B586B00590049103920293059B002B7D
:10A9C00010D1604A604BD31ADB081B0443F001002E
:10A9D0005E4A5F490E2300930B465E49FCF7A7F9D8
:10A9E0000E23ABE0039B002B10D1564A564BD31AD3
:10A9F000DB081B0443F00100574A55490E2300931E
:10AA00000B465449FCF793F90E2397E0059B1B680E
:10AA1000002B10D14B4A4C4BD31ADB081B0443F0DC
:10AA200001004E4A4A49082300930B464949FCF766
:10AA30007EF9082382E0029B002B10D1414A424B51
:10AA4000D31ADB081B0443F00100454A404909239F
:10AA500000930B463F49FCF76AF909236EE0059B1A
:10AA60005B685A68029BB3FBF2F102FB01F29B1A8E
:10AA7000002B10D0334A344BD31ADB081B0443F0AD
:10AA80000100384A3249092300930B463149FCF74B
:10AA90004EF9092352E0049800F01EF90346002BFA
:10AAA00010D1284A284BD31ADB081B0443F00100BD
:10AAB0002D4A2749102300930B462649FCF737F906
:10AAC00010233BE0039B184600F006F90346002BD9
:10AAD00010D11C4A1C4BD31ADB081B0443F00100A5
:10AAE000224A1B49102300930B461A49FCF71FF911
:10AAF000102323E0029A0499059800F0D3F8034646
:10AB0000002B10D10F4A104BD31ADB081B0443F063
:10AB10000100174A0E49102300930B460D49FCF71C
:10AB200006F910230AE0059B1B68DC68089B00936C
:10AB3000029B039A04990598A0470346184606B05D
:10AB400010BD00BF2C9F0400BC9E04007CA5040027
:10AB500034A7040084A5040010A60400B8A50400CE
:10AB6000CCA5040018A6040044A604005CA60400BA
:10AB700080A6040010B586B005900491039202935C
:10AB8000059B002B10D13E4A3E4BD31ADB081B0419
:10AB900043F001003C4A3D490E2300930B463C49DB
:10ABA000FCF7C5F80E2368E0059B1B68002B10D14D
:10ABB000334A344BD31ADB081B0443F00100354AF7
:10ABC0003249082300930B463149FCF7B0F80823BB
:10ABD00053E0039B002B10D1294A2A4BD31ADB08E0
:10ABE0001B0443F001002C4A2849092300930B461B
:10ABF0002749FCF79CF809233FE00499059800F0E9
:10AC000078F80346002B10D11D4A1E4BD31ADB08DF
:10AC10001B0443F00100214A1C49102300930B46FA
:10AC20001B49FCF784F8102327E0059B5B681B6831
:10AC3000039A02FB03F31A460499059800F032F8D0
:10AC40000346002B10D10E4A0E4BD31ADB081B040F
:10AC500043F00100124A0D49102300930B460C49A2
:10AC6000FCF765F8102308E0059B1B681C69029B34
:10AC7000039A04990598A0470346184606B010BDEC
:10AC80002C9F0400BC9E04007CA5040048A704007F
:10AC900084A50400B8A50400CCA50400A8A604005F
:10ACA000D0A6040084B0039002910192039BDB685C
:10ACB000029A9A4209D3029A019B13445A1E039B9B
:10ACC0001B699A4201D8012300E0002303F001032D
:10ACD000DBB2184604B0704782B00190019B03F0CC
:10ACE0000303002B0CBF01230023DBB2184602B084
:10ACF000704782B001900091019B5B681B685A1EEF
:10AD0000009B1340002B0CBF01230023DBB218462D
:10AD100002B0704729DF704700BF184628DF704730
:10AD200000BF184600B589B001900091019B1B68D7
:10AD30009B68002B35D002AB00221A605A609A60E3
:10AD4000DA601A615A61009B0393019B9B68079329
:10AD5000019B1B79002B02D0012B0DD01AE001239F
:10AD60008DF80830019B1B690493019BDB680593F8
:10AD7000019B5B6906930DE002238DF80830019B6F
:10AD8000DB684FF4805202FB03F30493019B5B6981
:10AD9000069300BF019B1B689B6802AA1046984758
:10ADA00000E000BF09B05DF804FB00B587B001907A
:10ADB000019B5A69019B9B69D31AB3F5805F28BF39
:10ADC0004FF4805305930422059BB3FBF2F3012B50
:10ADD00038BF01230593019B1A69019B9B691344AA
:10ADE0000493019BDB681A46019B9B691344039300
:10ADF000059A03990498FFF78DFF0346184607B09C
:10AE00005DF804FB00B583B00190019BDA68019BFB
:10AE10001B6913441846FFF781FF0346184603B029
:10AE20005DF804FB08B5034B03491846FEF792FE94
:10AE300000BF08BD9C2E0020C42E002008B5084B82
:10AE400008491846FEF75CFE0246074B1A60064B9F
:10AE50001B68002B14BF01230023DBB2184608BD7A
:10AE60009C2E0020C42E0020C02E002000B583B0F0
:10AE70002B4B1B7A002B0BD1FFF7E0FF034683F02F
:10AE80000103DBB2002B03D0254B00225A6043E0C4
:10AE9000234B02221A72234B1B681B79002B02D012
:10AEA000012B07D00DE01F4B1B681846FFF77DFFF5
:10AEB000019009E01B4B1B681846FFF7A3FF0190A8
:10AEC00002E00323019300BF019B002B03D0019BF1
:10AED000112B0CD00FE0124B1B7C83F00103DBB273
:10AEE000002B18D00021022000F062F913E00C4B77
:10AEF00001221A7210E00B4B1B6803211846FFF762
:10AF000011FF074B00221A72054B00225A60FFF70F
:10AF100089FF00BF00E000BF03B05DF804FB00BF85
:10AF2000AC2E0020C02E002008B50848FEF79EFF7A
:10AF30000346002B08D1064B5B7C83F00103DBB298
:10AF4000002B01D0FFF792FF00BF08BDB02E0020FC
:10AF5000AC2E002084B001901B4B0022DA60019BD4
:10AF60001B79002B02D0012B19D028E0019B5A69D4
:10AF7000019B9B69D31AB3F5805F28BF4FF48053C0
:10AF80000393019B9A69039B1A44019B9A61019B5D
:10AF90009A69019B5B699A420ED1012310E0019BE3
:10AFA0001B695A1C019B1A61019B1A69019B5B6911
:10AFB0009A4203D1012303E000BF00E000BF002359
:10AFC000184604B0704700BFAC2E002082B001903C
:10AFD000084BDB680133074AD360064BDB68082B5C
:10AFE00004D9044B0022DA60012300E00023184654
:10AFF00002B07047AC2E002000B583B001900091E4
:10B00000019B0C4A5A600C48FEF730FF0346002BA8
:10B010000BD11CF0F3FB03461A46074B1A74074882
:10B020001C238C220649FEF79DFC0023184603B022
:10B030005DF804FB5CA70400AC2E00209C2E0020D1
:10B04000102E002000B583B0019000911422002141
:10B0500005481DF060FE054B1846FEF7E3FC002393
:10B06000184603B05DF804FBAC2E00209C2E002097
:10B0700000B587B00390029101920093174A04AB88
:10B0800019461046FEF7FEFC0590059B002B01D1EA
:10B0900004231FE01C22002105981DF03CFE059BA7
:10B0A00000221A71059B039A1A60059B089A9A6000
:10B0B000059B029A1A61059B019ADA60059B009A2A
:10B0C0005A61064A04AB19461046FEF705FDFFF724
:10B0D0002BFF0023184607B05DF804FB9C2E0020D0
:10B0E00000B585B00390029101920093029B009AF3
:10B0F000194601981DF0E6FD0023184605B05DF8DD
:10B1000004FB000000B587B0039002910192009308
:10B11000184A04AB19461046FEF7B4FC0590059B8F
:10B12000002B01D1042320E01C22002105981DF0F2
:10B13000F2FD059B01221A71059B039A1A60059B7B
:10B14000009A9A604FF48052029BB3FBF2F2059B87
:10B15000DA60059B019A5A61064A04AB194610460B
:10B16000FEF7BAFCFFF7E0FE0023184607B05DF8D3
:10B1700004FB00BF9C2E002082B001900091009B38
:10B18000184602B0704782B0019000910023184623
:10B1900002B0704782B00190044B1B7A002B14BFA1
:10B1A00001230023DBB2184602B07047AC2E00200A
:10B1B00000B585B001900091019B022B02D0019B4C
:10B1C000032B4AD1274B1B7A012B36D0022B02D0FE
:10B1D000002B35D142E000238DF80F30019B022B6C
:10B1E00003D0019B032B09D011E01F4B1B681846AD
:10B1F000FFF7B0FE03468DF80F3008E01A4B1B68CE
:10B200001846FFF7E3FE03468DF80F3000BF9DF8A8
:10B210000F30002B13D0134B00221A72124B1A68F6
:10B22000019B022B01D1002300E00D23194610469B
:10B23000FFF778FDFFF7F6FD01E000BF00E000BF7B
:10B24000084B5B7C83F00103DBB2002B02D0FFF7DD
:10B250000DFE03E01CF0B6FA00E000BF05B05DF89B
:10B2600004FB00BFAC2E0020C02E002082B003469D
:10B2700000918DF80730064B01225A74044B1B7A5B
:10B28000002B0CBF01230023DBB2184602B070472D
:10B29000AC2E002000B583B0034600918DF8073036
:10B2A0009DF80730012B03D09DF80730032B0DD1FB
:10B2B000084B00225A749DF80730012B0CBF012364
:10B2C0000023DAB2034B1A74FFF7D0FD00BF03B0BE
:10B2D0005DF804FBAC2E002000B583B0019001980E
:10B2E000FEF71EFE0346184603B05DF804FB00B5EA
:10B2F0008BB001900091019B1B8A043B0793009A3D
:10B30000079B1344DA1C079BB2FBF3F38DF81B3049
:10B310000198FEF761FE0590059B002B01D10023EB
:10B3200038E0059B00221A71059B01225A71079B88
:10B330009AB2059BDA80059B09939DF81B30013B6F
:10B340000493099B019A1A60002308931DE0019859
:10B35000FEF742FE0390039B002B0ED0059B5B790A
:10B360000133DAB2059B5A71099B039A1A60039B59
:10B37000019A1A60039B099304E0059800F00EF807
:10B38000002307E0089B01330893089A049B9A4224
:10B39000DDD3059B18460BB05DF804FB00B58BB000
:10B3A0000190019B0793079B5B798DF81B30019BF4
:10B3B00008939DF81B30013B05930023099305E09A
:10B3C000089B1B680893099B01330993099A059B05
:10B3D0009A42F5D3089B1B680493019B08930023B2
:10B3E00009930BE0089B1B68039308990498FEF7E8
:10B3F0003BFE039B0893099B013309939DF81B3087
:10B40000099A9A42EED300BF0BB05DF804FB00B579
:10B4100085B00190019B0393039B043301211846DF
:10B42000FEF7F4FC00BF05B05DF804FB00B587B083
:10B430000190019B0593059B043301211846FEF7FB
:10B44000FDFC0346039303AB0493049B1B78002B82
:10B4500002D10198FFF7A2FF00BF07B05DF804FB1F
:10B4600000B591B00390029101920093039B002BD1
:10B4700003D14349B6200BF01BFE039B0993039BAA
:10B480000F93099BDB881A46099B5B7903FB02F348
:10B49000043B0893009A089B9A4203D33849C4207E
:10B4A0000BF006FE099BDB880793009B1A1D079B88
:10B4B000B2FBF3F30E93009B0433079AB3FBF2F253
:10B4C000079901FB02F29B1A0D93019B1A68009BDE
:10B4D0001344089A9A4203D2089A009BD31A01E0B7
:10B4E000019B1B680C93019B0C9A1A6005E00F9B53
:10B4F0001B680F930E9B013B0E930E9B002BF6D106
:10B5000000230B93079A0D9BD31A0A930A9A0C9B5C
:10B51000934228BF13460A932AE0029A0B9B1344D6
:10B5200006930F9A0D9B1344043305939DF84830FE
:10B53000002B05D00A9A059906981DF0C3FB04E07C
:10B540000A9A069905981DF0BDFB00230D930F9BE9
:10B550001B680F930C9A0A9BD31A0C930B9A0A9BA5
:10B5600013440B93079A0C9B934228BF13460A93EC
:10B570000C9B002BD1D100BF11B05DF804FB00BFC4
:10B5800088A7040000B589B0059004910392029346
:10B59000039B079307AA00230093029B0499059835
:10B5A000FFF75EFF079B039A9A4203D00349F620F8
:10B5B0000BF07EFD00BF09B05DF804FB88A7040016
:10B5C00000B589B00590049103920293039B079301
:10B5D00007AA01230093029B04990598FFF740FFF7
:10B5E000079B039A9A4204D004494FF480700BF0F1
:10B5F0005FFD00BF09B05DF804FB00BF88A7040031
:10B6000082B003468DF807309DF8073003F01F0223
:10B6100006499DF907305B09012000FA02F2603308
:10B6200041F8232000BF02B0704700BF00E100E0F6
:10B63000BFF34F8F054BDB6803F4E0620349044B13
:10B640001343CB60BFF34F8F00BFFDE700ED00E079
:10B650000400FA0500B583B00190019B002B03D1D3
:10B660000449C4200BF024FD019B5B68184603B01D
:10B670005DF804FBD8A7040000B583B00190019BDE
:10B68000002B03D1064972200BF012FD019B002212
:10B690001A60BFF35F8F00BF03B05DF804FB00BF0B
:10B6A00028A8040000B585B00190019B002B03D1B0
:10B6B0000A4985200BF0FCFC01210198FEF717FBDD
:10B6C0000390BFF35F8F039B002B0CBF012300236C
:10B6D000DBB2184605B05DF804FB00BF28A80400E3
:10B6E00000B583B00190019B002B03D10A49922041
:10B6F0000BF0DEFC019B1B68012B03D00649932055
:10B700000BF0D6FCBFF35F8F019B00221A6000BFD5
:10B7100003B05DF804FB00BF28A8040033DF7047C6
:10B7200000BF184641DF704700BF18464FF0804306
:10B730000122C3F80025BFF34F8F20BFFDE70000B3
:10B7400000B585B000238DF803300DF103031846D2
:10B75000FCF7C0F8F1EE103A0193019B0393039BB1
:10B7600023F09F030293029BE1EE103ABFF35F8F39
:10B770002620FFF745FF9DF803301846FCF7C0F878
:10B78000039B03F00703002B03D004497D200BF03B
:10B790008FFC00BF05B05DF804FB00BF64A8040087
:10B7A00008B5044B1B78002B02D0042000F0B6F83B
:10B7B00000BF08BDD02E002000B583B00190FFF778
:10B7C000EFFF00BF03B05DF804FB000000B583B0DD
:10B7D0000B4A01210B4800F0F9FE0190019B002B60
:10B7E00001D0019B07E0084B00224FF400411846AE
:10B7F00000F01CFF0346184603B05DF804FB00BFD1
:10B80000B9B70200C4A80400E02E002008B5074B19
:10B8100000221A700648FFF72FFF0649064800F07D
:10B82000D7F8FFF7D3FF0346184608BDD02E0020F7
:10B83000CC2E0020B8A80400D42E002000B583B080
:10B84000FFF77EFF1BF0DAFF0346002B0ED0FFF759
:10B8500069FF0190019B002B0BD0019B022B08D0AC
:10B8600006494FF4B0700BF023FC02E020BF40BF4C
:10B8700020BF00BF03B05DF804FB00BF64A8040054
:10B8800000B583B00FE02248FFF7E4FE0090009B74
:10B890001B68204A1278104698470346002B33D085
:10B8A0001B4800F0BFF81A48FFF7D4FE0346002BF0
:10B8B000E9D1FBF7D1FC00BFFBF790FA0346002B60
:10B8C000FAD1144B1B78032B03D0124B1B78022B9D
:10B8D00002D1FFF7ADFE18E01BF090FF0346002BEE
:10B8E0000FD0FFF71BFF0190019B002B07D0019B9E
:10B8F000022B04D008494FF4D1700BF0D9FB20BFC4
:10B90000FDE7FFF713FF00E000BF03B05DF804FBA5
:10B91000D42E0020C82E002064A8040000B583B0F7
:10B9200003468DF807301748FFF7BCFE034683F047
:10B930000103DBB2002B21D19DF80730042B0ED080
:10B94000114B1B78002B03D00E48FFF7C9FE16E001
:10B950000E4A9DF8073013700B4B01221A700A4BE8
:10B960001B78002B04D10A4940F2D5100BF0A0FB44
:10B97000FFF786FF0348FFF7B3FE00E000BF03B008
:10B980005DF804FBCC2E0020D02E0020C82E002015
:10B9900064A8040082B00190019B9B6800229A6019
:10B9A000019B9B6800221A61019B9B6800225A61DF
:10B9B000019B9B680022DA60019B9B6800225A6011
:10B9C000019B9B6800221A6000BF02B07047000014
:10B9D00000B583B001900091019B002B03D1104969
:10B9E00050200BF065FB009B002B03D10C4951202C
:10B9F0000BF05EFB019B009A1A60019B1B681A68A2
:10BA0000019B5A60019B5A68019B1B685B689A42C4
:10BA100002D1019B00225A6000BF03B05DF804FB15
:10BA2000C8A8040000B583B00190019B002B03D18E
:10BA3000144963200BF03CFB019B1B68002B03D1D6
:10BA4000104964200BF034FB019B5B68002B14D081
:10BA5000019B5B681A46019B1B689B6813441A464E
:10BA6000019B5A60019B5A68019B1B685B689A4264
:10BA700004D1019B00225A6000E000BF03B05DF8D2
:10BA800004FB00BFC8A8040000B585B00190019870
:10BA900000F00EF80390039B002B01D0039B00E005
:10BAA000024B184605B05DF804FB00BF90A90400E6
:10BAB00086B00190164B0593164B04931FE0049A31
:10BAC000059BD31ADB10DA0F13445B10DB00059AD9
:10BAD00013440393039B1B680293029A019B9A42AF
